{
  "_format": "hh-sol-artifact-1",
  "contractName": "AutomatedFunctionsConsumer",
  "sourceName": "contracts/AutomatedFunctionsConsumer.sol",
  "abi": [
    {
      "inputs": [
        {
          "internalType": "address",
          "name": "router",
          "type": "address"
        }
      ],
      "stateMutability": "nonpayable",
      "type": "constructor"
    },
    {
      "inputs": [],
      "name": "EmptyArgs",
      "type": "error"
    },
    {
      "inputs": [],
      "name": "EmptySource",
      "type": "error"
    },
    {
      "inputs": [],
      "name": "NoInlineSecrets",
      "type": "error"
    },
    {
      "inputs": [
        {
          "internalType": "address",
          "name": "caller",
          "type": "address"
        },
        {
          "internalType": "address",
          "name": "owner",
          "type": "address"
        },
        {
          "internalType": "address",
          "name": "automationRegistry",
          "type": "address"
        }
      ],
      "name": "NotAllowedCaller",
      "type": "error"
    },
    {
      "inputs": [],
      "name": "OnlyRouterCanFulfill",
      "type": "error"
    },
    {
      "inputs": [
        {
          "internalType": "bytes32",
          "name": "requestId",
          "type": "bytes32"
        }
      ],
      "name": "UnexpectedRequestID",
      "type": "error"
    },
    {
      "anonymous": false,
      "inputs": [
        {
          "indexed": true,
          "internalType": "address",
          "name": "from",
          "type": "address"
        },
        {
          "indexed": true,
          "internalType": "address",
          "name": "to",
          "type": "address"
        }
      ],
      "name": "OwnershipTransferRequested",
      "type": "event"
    },
    {
      "anonymous": false,
      "inputs": [
        {
          "indexed": true,
          "internalType": "address",
          "name": "from",
          "type": "address"
        },
        {
          "indexed": true,
          "internalType": "address",
          "name": "to",
          "type": "address"
        }
      ],
      "name": "OwnershipTransferred",
      "type": "event"
    },
    {
      "anonymous": false,
      "inputs": [
        {
          "indexed": true,
          "internalType": "bytes32",
          "name": "id",
          "type": "bytes32"
        }
      ],
      "name": "RequestFulfilled",
      "type": "event"
    },
    {
      "anonymous": false,
      "inputs": [
        {
          "indexed": true,
          "internalType": "bytes32",
          "name": "id",
          "type": "bytes32"
        }
      ],
      "name": "RequestSent",
      "type": "event"
    },
    {
      "anonymous": false,
      "inputs": [
        {
          "indexed": true,
          "internalType": "bytes32",
          "name": "requestId",
          "type": "bytes32"
        },
        {
          "indexed": false,
          "internalType": "bytes",
          "name": "response",
          "type": "bytes"
        },
        {
          "indexed": false,
          "internalType": "bytes",
          "name": "err",
          "type": "bytes"
        }
      ],
      "name": "Response",
      "type": "event"
    },
    {
      "anonymous": false,
      "inputs": [],
      "name": "UpdatePendingTransferRequest",
      "type": "event"
    },
    {
      "anonymous": false,
      "inputs": [],
      "name": "UpdatePendingTransferRequests",
      "type": "event"
    },
    {
      "inputs": [],
      "name": "acceptOwnership",
      "outputs": [],
      "stateMutability": "nonpayable",
      "type": "function"
    },
    {
      "inputs": [
        {
          "internalType": "bytes",
          "name": "",
          "type": "bytes"
        }
      ],
      "name": "checkUpkeep",
      "outputs": [
        {
          "internalType": "bool",
          "name": "upkeepNeeded",
          "type": "bool"
        },
        {
          "internalType": "bytes",
          "name": "performData",
          "type": "bytes"
        }
      ],
      "stateMutability": "view",
      "type": "function"
    },
    {
      "inputs": [],
      "name": "donID",
      "outputs": [
        {
          "internalType": "bytes32",
          "name": "",
          "type": "bytes32"
        }
      ],
      "stateMutability": "view",
      "type": "function"
    },
    {
      "inputs": [],
      "name": "gasLimit",
      "outputs": [
        {
          "internalType": "uint32",
          "name": "",
          "type": "uint32"
        }
      ],
      "stateMutability": "view",
      "type": "function"
    },
    {
      "inputs": [
        {
          "internalType": "bytes32",
          "name": "requestId",
          "type": "bytes32"
        },
        {
          "internalType": "bytes",
          "name": "response",
          "type": "bytes"
        },
        {
          "internalType": "bytes",
          "name": "err",
          "type": "bytes"
        }
      ],
      "name": "handleOracleFulfillment",
      "outputs": [],
      "stateMutability": "nonpayable",
      "type": "function"
    },
    {
      "inputs": [],
      "name": "owner",
      "outputs": [
        {
          "internalType": "address",
          "name": "",
          "type": "address"
        }
      ],
      "stateMutability": "view",
      "type": "function"
    },
    {
      "inputs": [
        {
          "internalType": "bytes",
          "name": "",
          "type": "bytes"
        }
      ],
      "name": "performUpkeep",
      "outputs": [],
      "stateMutability": "nonpayable",
      "type": "function"
    },
    {
      "inputs": [],
      "name": "request",
      "outputs": [
        {
          "internalType": "bytes",
          "name": "",
          "type": "bytes"
        }
      ],
      "stateMutability": "view",
      "type": "function"
    },
    {
      "inputs": [],
      "name": "s_lastError",
      "outputs": [
        {
          "internalType": "bytes",
          "name": "",
          "type": "bytes"
        }
      ],
      "stateMutability": "view",
      "type": "function"
    },
    {
      "inputs": [],
      "name": "s_lastRequestId",
      "outputs": [
        {
          "internalType": "bytes32",
          "name": "",
          "type": "bytes32"
        }
      ],
      "stateMutability": "view",
      "type": "function"
    },
    {
      "inputs": [],
      "name": "s_lastResponse",
      "outputs": [
        {
          "internalType": "bytes",
          "name": "",
          "type": "bytes"
        }
      ],
      "stateMutability": "view",
      "type": "function"
    },
    {
      "inputs": [
        {
          "internalType": "address",
          "name": "_upkeepContract",
          "type": "address"
        }
      ],
      "name": "setAutomationCronContract",
      "outputs": [],
      "stateMutability": "nonpayable",
      "type": "function"
    },
    {
      "inputs": [],
      "name": "source",
      "outputs": [
        {
          "internalType": "string",
          "name": "",
          "type": "string"
        }
      ],
      "stateMutability": "view",
      "type": "function"
    },
    {
      "inputs": [],
      "name": "subscriptionId",
      "outputs": [
        {
          "internalType": "uint64",
          "name": "",
          "type": "uint64"
        }
      ],
      "stateMutability": "view",
      "type": "function"
    },
    {
      "inputs": [
        {
          "internalType": "address",
          "name": "to",
          "type": "address"
        }
      ],
      "name": "transferOwnership",
      "outputs": [],
      "stateMutability": "nonpayable",
      "type": "function"
    },
    {
      "inputs": [
        {
          "components": [
            {
              "internalType": "string",
              "name": "requestId",
              "type": "string"
            },
            {
              "internalType": "address",
              "name": "accountAddress",
              "type": "address"
            },
            {
              "internalType": "address",
              "name": "toAddress",
              "type": "address"
            },
            {
              "internalType": "address",
              "name": "tokenAddress",
              "type": "address"
            },
            {
              "internalType": "uint256",
              "name": "amount",
              "type": "uint256"
            },
            {
              "internalType": "uint64",
              "name": "destinationChainSelector",
              "type": "uint64"
            }
          ],
          "internalType": "struct Structs.PendingTransferRequest",
          "name": "_pendingTransferRequest",
          "type": "tuple"
        }
      ],
      "name": "updatePendingTransferRequest",
      "outputs": [
        {
          "internalType": "uint256",
          "name": "",
          "type": "uint256"
        }
      ],
      "stateMutability": "nonpayable",
      "type": "function"
    },
    {
      "inputs": [
        {
          "components": [
            {
              "internalType": "string",
              "name": "requestId",
              "type": "string"
            },
            {
              "internalType": "address",
              "name": "accountAddress",
              "type": "address"
            },
            {
              "internalType": "address",
              "name": "toAddress",
              "type": "address"
            },
            {
              "internalType": "address",
              "name": "tokenAddress",
              "type": "address"
            },
            {
              "internalType": "uint256",
              "name": "amount",
              "type": "uint256"
            },
            {
              "internalType": "uint64",
              "name": "destinationChainSelector",
              "type": "uint64"
            }
          ],
          "internalType": "struct Structs.PendingTransferRequest[]",
          "name": "requests",
          "type": "tuple[]"
        }
      ],
      "name": "updatePendingTransferRequests",
      "outputs": [
        {
          "internalType": "uint256",
          "name": "",
          "type": "uint256"
        }
      ],
      "stateMutability": "nonpayable",
      "type": "function"
    },
    {
      "inputs": [
        {
          "internalType": "string",
          "name": "_source",
          "type": "string"
        },
        {
          "internalType": "uint64",
          "name": "_subscriptionId",
          "type": "uint64"
        },
        {
          "internalType": "uint32",
          "name": "_gasLimit",
          "type": "uint32"
        },
        {
          "internalType": "bytes32",
          "name": "_donID",
          "type": "bytes32"
        }
      ],
      "name": "updateRequest",
      "outputs": [],
      "stateMutability": "nonpayable",
      "type": "function"
    },
    {
      "inputs": [
        {
          "internalType": "bytes",
          "name": "_request",
          "type": "bytes"
        },
        {
          "internalType": "uint64",
          "name": "_subscriptionId",
          "type": "uint64"
        },
        {
          "internalType": "uint32",
          "name": "_gasLimit",
          "type": "uint32"
        },
        {
          "internalType": "bytes32",
          "name": "_donID",
          "type": "bytes32"
        }
      ],
      "name": "updateRequestCBOR",
      "outputs": [],
      "stateMutability": "nonpayable",
      "type": "function"
    },
    {
      "inputs": [],
      "name": "upkeepContract",
      "outputs": [
        {
          "internalType": "address",
          "name": "",
          "type": "address"
        }
      ],
      "stateMutability": "view",
      "type": "function"
    }
  ],
  "bytecode": "0x60a06040523480156200001157600080fd5b506040516200250738038062002507833981016040819052620000349162000180565b6001600160a01b0381166080523380600081620000985760405162461bcd60e51b815260206004820152601860248201527f43616e6e6f7420736574206f776e657220746f207a65726f000000000000000060448201526064015b60405180910390fd5b600080546001600160a01b0319166001600160a01b0384811691909117909155811615620000cb57620000cb81620000d5565b50505050620001b2565b336001600160a01b038216036200012f5760405162461bcd60e51b815260206004820152601760248201527f43616e6e6f74207472616e7366657220746f2073656c6600000000000000000060448201526064016200008f565b600180546001600160a01b0319166001600160a01b0383811691821790925560008054604051929316917fed8889f560326eb138920d842192f0eb3dd22b4f139c87a2c57538e05bae12789190a350565b6000602082840312156200019357600080fd5b81516001600160a01b0381168114620001ab57600080fd5b9392505050565b608051612332620001d560003960008181610340015261118d01526123326000f3fe608060405234801561001057600080fd5b506004361061016c5760003560e01c80636e04ff0d116100cd578063ae0ccd2e11610081578063be6ee42111610066578063be6ee421146102de578063f2fde38b146102f1578063f68016b71461030457600080fd5b8063ae0ccd2e146102c2578063b1e21749146102d557600080fd5b806379ba5097116100b257806379ba5097146102965780638da5cb5b1461029e578063a271f3fe146102af57600080fd5b80636e04ff0d146102575780636e74336b1461028d57600080fd5b80634585e33b116101245780635e0611f1116101095780635e0611f114610211578063619a42101461023c57806367e828bf1461024f57600080fd5b80634585e33b146101f65780634b0795a81461020957600080fd5b80632591abb2116101555780632591abb2146101b8578063338cdca1146101d95780633944ea3a146101ee57600080fd5b806309c1ba2e146101715780630ca76175146101a3575b600080fd5b6005546101859067ffffffffffffffff1681565b60405167ffffffffffffffff90911681526020015b60405180910390f35b6101b66101b1366004611951565b610335565b005b6101cb6101c63660046119be565b6103d2565b60405190815260200161019a565b6101e1610452565b60405161019a9190611a3f565b6101e16104e0565b6101b6610204366004611a52565b6104ed565b6101e1610820565b600254610224906001600160a01b031681565b6040516001600160a01b03909116815260200161019a565b6101cb61024a366004611afa565b61082d565b6101e1610954565b61027f610265366004611a52565b5050600a5460408051602081019091526000815290151591565b60405161019a929190611c4a565b6101cb60065481565b6101b6610961565b6000546001600160a01b0316610224565b6101b66102bd366004611c6d565b610a17565b6101b66102d0366004611c9e565b610a41565b6101cb60075481565b6101b66102ec366004611c9e565b610a9b565b6101b66102ff366004611c6d565b610aaf565b6005546103209068010000000000000000900463ffffffff1681565b60405163ffffffff909116815260200161019a565b336001600160a01b037f00000000000000000000000000000000000000000000000000000000000000001614610397576040517fc6829f8300000000000000000000000000000000000000000000000000000000815260040160405180910390fd5b6103a2838383610ac3565b60405183907f85e1543bf2f84fe80c6badbce3648c8539ad1df4d2b3d822938ca0538be727e690600090a2505050565b60006103dc610b5c565b600a805460018101825560009190915282906006027fc65a7bb8d6351c1cf70c95a316cc6a92839c986682d98bc35f958f4883f9d2a80161041d8282611e69565b50506040517f8d88f3c4a03f1faea4ec56184a1509a6911048f4e64a40bd979bdb095ae6490390600090a150600a545b919050565b6004805461045f90611d06565b80601f016020809104026020016040519081016040528092919081815260200182805461048b90611d06565b80156104d85780601f106104ad576101008083540402835291602001916104d8565b820191906000526020600020905b8154815290600101906020018083116104bb57829003601f168201915b505050505081565b6008805461045f90611d06565b600a541561081c57600a5460009067ffffffffffffffff81111561051357610513611871565b60405190808252806020026020018201604052801561054657816020015b60608152602001906001900390816105315790505b50905060005b600a548110156107d557600a818154811061056957610569611f84565b906000526020600020906006020160010160009054906101000a90046001600160a01b03166001600160a01b03166381e81848600a83815481106105af576105af611f84565b906000526020600020906006020160020160009054906101000a90046001600160a01b0316600a84815481106105e7576105e7611f84565b906000526020600020906006020160030160009054906101000a90046001600160a01b0316600a858154811061061f5761061f611f84565b906000526020600020906006020160040154600a868154811061064457610644611f84565b600091825260209091206006909102016005015460405160e086901b7fffffffff000000000000000000000000000000000000000000000000000000001681526001600160a01b039485166004820152939092166024840152604483015267ffffffffffffffff1660648201526084016020604051808303816000875af11580156106d3573d6000803e3d6000fd5b505050506040513d601f19601f820116820180604052508101906106f79190611f9a565b50600a818154811061070b5761070b611f84565b9060005260206000209060060201600001805461072790611d06565b80601f016020809104026020016040519081016040528092919081815260200182805461075390611d06565b80156107a05780601f10610775576101008083540402835291602001916107a0565b820191906000526020600020905b81548152906001019060200180831161078357829003601f168201915b50505050508282815181106107b7576107b7611f84565b602002602001018190525080806107cd90611fc9565b91505061054c565b506040805160008082526020820190925261080d91839190610807565b60608152602001906001900390816107f25790505b50610bb8565b5061081a600a600061176c565b505b5050565b6009805461045f90611d06565b6000610837610b5c565b60005b825181101561092257600a83828151811061085757610857611f84565b602090810291909101810151825460018101845560009384529190922082516006909202019081906108899082611fe2565b5060208201516001820180546001600160a01b03199081166001600160a01b039384161790915560408401516002840180548316918416919091179055606084015160038401805490921692169190911790556080820151600482015560a0909101516005909101805467ffffffffffffffff191667ffffffffffffffff9092169190911790558061091a81611fc9565b91505061083a565b506040517f9efabac3a16964e713205ccffc1162dd59b8a9cc696f5ee1d0696ba18377e8dc90600090a15050600a5490565b6003805461045f90611d06565b6001546001600160a01b031633146109c05760405162461bcd60e51b815260206004820152601660248201527f4d7573742062652070726f706f736564206f776e65720000000000000000000060448201526064015b60405180910390fd5b60008054336001600160a01b0319808316821784556001805490911690556040516001600160a01b0390921692909183917f8be0079c531659141344cd1fd0a4f28419497f9722a3daafe3b4186f6b6457e091a350565b610a1f610b5c565b600280546001600160a01b0319166001600160a01b0392909216919091179055565b610a49610b5c565b6003610a558582611fe2565b506005805463ffffffff90931668010000000000000000026bffffffffffffffffffffffff1990931667ffffffffffffffff909416939093179190911790915560065550565b610aa3610b5c565b6004610a558582611fe2565b610ab7610b5c565b610ac081610cff565b50565b8260075414610b01576040517fd068bf5b000000000000000000000000000000000000000000000000000000008152600481018490526024016109b7565b6008610b0d8382611fe2565b506009610b1a8282611fe2565b50827f7873807bf6ddc50401cd3d29bbe0decee23fd4d68d273f4b5eb83cded4d2f17260086009604051610b4f92919061211f565b60405180910390a2505050565b6000546001600160a01b03163314610bb65760405162461bcd60e51b815260206004820152601660248201527f4f6e6c792063616c6c61626c65206279206f776e65720000000000000000000060448201526064016109b7565b565b6000610bfb6040805160e0810190915280600081526020016000815260200160008152602001606081526020016060815260200160608152602001606081525090565b610c9860038054610c0b90611d06565b80601f0160208091040260200160405190810160405280929190818152602001828054610c3790611d06565b8015610c845780601f10610c5957610100808354040283529160200191610c84565b820191906000526020600020905b815481529060010190602001808311610c6757829003601f168201915b505050505082610da890919063ffffffff16565b835115610ca957610ca98185610db5565b825115610cba57610cba8184610ddf565b610cf0610cc682610e09565b60055460065467ffffffffffffffff82169168010000000000000000900463ffffffff1690611188565b60078190559150505b92915050565b336001600160a01b03821603610d575760405162461bcd60e51b815260206004820152601760248201527f43616e6e6f74207472616e7366657220746f2073656c6600000000000000000060448201526064016109b7565b600180546001600160a01b0319166001600160a01b0383811691821790925560008054604051929316917fed8889f560326eb138920d842192f0eb3dd22b4f139c87a2c57538e05bae12789190a350565b61081c826000808461125a565b8051600003610dd75760405163fe936cb760e01b815260040160405180910390fd5b60a090910152565b8051600003610e015760405163fe936cb760e01b815260040160405180910390fd5b60c090910152565b60606000610e186101006112f1565b9050610e626040518060400160405280600c81526020017f636f64654c6f636174696f6e00000000000000000000000000000000000000008152508261131290919063ffffffff16565b8251610e80906002811115610e7957610e7961214d565b829061132b565b60408051808201909152600881527f6c616e67756167650000000000000000000000000000000000000000000000006020820152610ebf908290611312565b6040830151610ed6908015610e7957610e7961214d565b60408051808201909152600681527f736f7572636500000000000000000000000000000000000000000000000000006020820152610f15908290611312565b6060830151610f25908290611312565b60a08301515115610fd25760408051808201909152600481527f61726773000000000000000000000000000000000000000000000000000000006020820152610f6f908290611312565b610f7881611364565b60005b8360a0015151811015610fc857610fb88460a001518281518110610fa157610fa1611f84565b60200260200101518361131290919063ffffffff16565b610fc181611fc9565b9050610f7b565b50610fd281611388565b608083015151156110d357600083602001516002811115610ff557610ff561214d565b0361102c576040517fa80d31f700000000000000000000000000000000000000000000000000000000815260040160405180910390fd5b60408051808201909152600f81527f736563726574734c6f636174696f6e0000000000000000000000000000000000602082015261106b908290611312565b61108483602001516002811115610e7957610e7961214d565b60408051808201909152600781527f736563726574730000000000000000000000000000000000000000000000000060208201526110c3908290611312565b60808301516110d39082906113a6565b60c083015151156111805760408051808201909152600981527f6279746573417267730000000000000000000000000000000000000000000000602082015261111d908290611312565b61112681611364565b60005b8360c0015151811015611176576111668460c00151828151811061114f5761114f611f84565b6020026020010151836113a690919063ffffffff16565b61116f81611fc9565b9050611129565b5061118081611388565b515192915050565b6000807f00000000000000000000000000000000000000000000000000000000000000006001600160a01b031663461d27628688600188886040518663ffffffff1660e01b81526004016111e0959493929190612163565b6020604051808303816000875af11580156111ff573d6000803e3d6000fd5b505050506040513d601f19601f820116820180604052508101906112239190611f9a565b60405190915081907f1131472297a800fee664d1d89cfa8f7676ff07189ecc53f80bbb5f4969099db890600090a295945050505050565b8051600003611295576040517f22ce3edd00000000000000000000000000000000000000000000000000000000815260040160405180910390fd5b838360028111156112a8576112a861214d565b908160028111156112bb576112bb61214d565b905250604084018280156112d1576112d161214d565b908180156112e1576112e161214d565b9052506060909301929092525050565b6112f961178d565b805161130590836113b3565b5060006020820152919050565b61131f826003835161142a565b815161081a9082611557565b81516113389060c261157f565b5061081c828260405160200161135091815260200190565b6040516020818303038152906040526113a6565b61136f8160046115e8565b60018160200181815161138291906121ad565b90525050565b6113938160076115e8565b60018160200181815161138291906121c0565b61131f826002835161142a565b6040805180820190915260608152600060208201526113d36020836121d3565b156113fb576113e36020836121d3565b6113ee9060206121c0565b6113f890836121ad565b91505b60208084018390526040518085526000815290818401018181101561141f57600080fd5b604052509192915050565b60178167ffffffffffffffff16116114575782516114519060e0600585901b16831761157f565b5061081a565b60ff8167ffffffffffffffff1611611499578251611480906018611fe0600586901b161761157f565b5082516114519067ffffffffffffffff831660016115ff565b61ffff8167ffffffffffffffff16116114dc5782516114c3906019611fe0600586901b161761157f565b5082516114519067ffffffffffffffff831660026115ff565b63ffffffff8167ffffffffffffffff161161152157825161150890601a611fe0600586901b161761157f565b5082516114519067ffffffffffffffff831660046115ff565b825161153890601b611fe0600586901b161761157f565b5082516115519067ffffffffffffffff831660086115ff565b50505050565b60408051808201909152606081526000602082015261157883838451611684565b9392505050565b60408051808201909152606081526000602082015282515160006115a48260016121ad565b9050846020015182106115c5576115c5856115c08360026121f5565b611755565b84516020838201018581535080518211156115de578181525b5093949350505050565b815161081a90601f611fe0600585901b161761157f565b604080518082019091526060815260006020820152835151600061162382856121ad565b9050856020015181111561164057611640866115c08360026121f5565b60006001611650866101006122f0565b61165a91906121c0565b90508651828101878319825116178152508051831115611678578281525b50959695505050505050565b60408051808201909152606081526000602082015282518211156116a757600080fd5b83515160006116b684836121ad565b905085602001518111156116d3576116d3866115c08360026121f5565b8551805183820160200191600091808511156116ed578482525b505050602086015b6020861061172d578051825261170c6020836121ad565b91506117196020826121ad565b90506117266020876121c0565b95506116f5565b51815160001960208890036101000a0190811690199190911617905250849150509392505050565b815161176183836113b3565b506115518382611557565b5080546000825560060290600052602060002090810190610ac091906117c2565b60405180604001604052806117b5604051806040016040528060608152602001600081525090565b8152602001600081525090565b808211156118235760006117d68282611827565b506001810180546001600160a01b03199081169091556002820180548216905560038201805490911690556000600482015560058101805467ffffffffffffffff191690556006016117c2565b5090565b50805461183390611d06565b6000825580601f10611843575050565b601f016020900490600052602060002090810190610ac091905b80821115611823576000815560010161185d565b634e487b7160e01b600052604160045260246000fd5b60405160c0810167ffffffffffffffff811182821017156118aa576118aa611871565b60405290565b604051601f8201601f1916810167ffffffffffffffff811182821017156118d9576118d9611871565b604052919050565b600082601f8301126118f257600080fd5b813567ffffffffffffffff81111561190c5761190c611871565b61191f601f8201601f19166020016118b0565b81815284602083860101111561193457600080fd5b816020850160208301376000918101602001919091529392505050565b60008060006060848603121561196657600080fd5b83359250602084013567ffffffffffffffff8082111561198557600080fd5b611991878388016118e1565b935060408601359150808211156119a757600080fd5b506119b4868287016118e1565b9150509250925092565b6000602082840312156119d057600080fd5b813567ffffffffffffffff8111156119e757600080fd5b820160c0818503121561157857600080fd5b6000815180845260005b81811015611a1f57602081850181015186830182015201611a03565b506000602082860101526020601f19601f83011685010191505092915050565b60208152600061157860208301846119f9565b60008060208385031215611a6557600080fd5b823567ffffffffffffffff80821115611a7d57600080fd5b818501915085601f830112611a9157600080fd5b813581811115611aa057600080fd5b866020828501011115611ab257600080fd5b60209290920196919550909350505050565b6001600160a01b0381168114610ac057600080fd5b67ffffffffffffffff81168114610ac057600080fd5b803561044d81611ad9565b60006020808385031215611b0d57600080fd5b823567ffffffffffffffff80821115611b2557600080fd5b818501915085601f830112611b3957600080fd5b813581811115611b4b57611b4b611871565b8060051b611b5a8582016118b0565b9182528381018501918581019089841115611b7457600080fd5b86860192505b83831015611c3d57823585811115611b925760008081fd5b860160c0818c03601f1901811315611baa5760008081fd5b611bb2611887565b8983013588811115611bc45760008081fd5b611bd28e8c838701016118e1565b825250604080840135611be481611ac4565b828c0152606084810135611bf781611ac4565b8083850152506080915081850135611c0e81611ac4565b9083015260a08481013582840152611c27848601611aef565b9083015250845250509186019190860190611b7a565b9998505050505050505050565b8215158152604060208201526000611c6560408301846119f9565b949350505050565b600060208284031215611c7f57600080fd5b813561157881611ac4565b803563ffffffff8116811461044d57600080fd5b60008060008060808587031215611cb457600080fd5b843567ffffffffffffffff811115611ccb57600080fd5b611cd7878288016118e1565b9450506020850135611ce881611ad9565b9250611cf660408601611c8a565b9396929550929360600135925050565b600181811c90821680611d1a57607f821691505b602082108103611d3a57634e487b7160e01b600052602260045260246000fd5b50919050565b601f82111561081a57600081815260208120601f850160051c81016020861015611d675750805b601f850160051c820191505b81811015611d8657828155600101611d73565b505050505050565b67ffffffffffffffff831115611da657611da6611871565b611dba83611db48354611d06565b83611d40565b6000601f841160018114611dee5760008515611dd65750838201355b600019600387901b1c1916600186901b178355611e48565b600083815260209020601f19861690835b82811015611e1f5786850135825560209485019460019092019101611dff565b5086821015611e3c5760001960f88860031b161c19848701351681555b505060018560011b0183555b5050505050565b60008135610cf981611ac4565b60008135610cf981611ad9565b8135601e19833603018112611e7d57600080fd5b8201803567ffffffffffffffff811115611e9657600080fd5b602082019150803603821315611eab57600080fd5b611eb6818385611d8e565b5050611ee8611ec760208401611e4f565b600183016001600160a01b0382166001600160a01b03198254161781555050565b611f18611ef760408401611e4f565b600283016001600160a01b0382166001600160a01b03198254161781555050565b611f48611f2760608401611e4f565b600383016001600160a01b0382166001600160a01b03198254161781555050565b6080820135600482015561081c611f6160a08401611e5c565b6005830167ffffffffffffffff821667ffffffffffffffff198254161781555050565b634e487b7160e01b600052603260045260246000fd5b600060208284031215611fac57600080fd5b5051919050565b634e487b7160e01b600052601160045260246000fd5b600060018201611fdb57611fdb611fb3565b5060010190565b815167ffffffffffffffff811115611ffc57611ffc611871565b6120108161200a8454611d06565b84611d40565b602080601f831160018114612045576000841561202d5750858301515b600019600386901b1c1916600185901b178555611d86565b600085815260208120601f198616915b8281101561207457888601518255948401946001909101908401612055565b50858210156120925787850151600019600388901b60f8161c191681555b5050505050600190811b01905550565b600081546120af81611d06565b8085526020600183811680156120cc57600181146120e657612114565b60ff1985168884015283151560051b880183019550612114565b866000528260002060005b8581101561210c5781548a82018601529083019084016120f1565b890184019650505b505050505092915050565b60408152600061213260408301856120a2565b828103602084015261214481856120a2565b95945050505050565b634e487b7160e01b600052602160045260246000fd5b67ffffffffffffffff8616815260a06020820152600061218660a08301876119f9565b61ffff9590951660408301525063ffffffff92909216606083015260809091015292915050565b80820180821115610cf957610cf9611fb3565b81810381811115610cf957610cf9611fb3565b6000826121f057634e487b7160e01b600052601260045260246000fd5b500690565b8082028115828204841417610cf957610cf9611fb3565b600181815b8085111561224757816000190482111561222d5761222d611fb3565b8085161561223a57918102915b93841c9390800290612211565b509250929050565b60008261225e57506001610cf9565b8161226b57506000610cf9565b8160018114612281576002811461228b576122a7565b6001915050610cf9565b60ff84111561229c5761229c611fb3565b50506001821b610cf9565b5060208310610133831016604e8410600b84101617156122ca575081810a610cf9565b6122d4838361220c565b80600019048211156122e8576122e8611fb3565b029392505050565b6000611578838361224f56fea264697066735822122048d3015b879013642fb2d8c6ae952881a4293e682091050ab3ab3e5a3dcc2cfa64736f6c63430008130033",
  "linkReferences": {},
  "deployedLinkReferences": {}
}